:100000005FC00DC278C077C076C075C074C073C0C1
:1000100072C071C070C06FC06EC06DC06CC06BC06C
:100020006AC069C068C067C066C065C064C063C09C
:1000300062C061C01201100102000008C016E10593
:1000400000010102000110035500530042002D0081
:1000500032003300320022037700770077002E0051
:1000600072006500630075007200730069006F0024
:100070006E002E006A0070000403090409024300A8
:10008000020100803209040000010202010005247F
:1000900000100104240202052406000105240103C6
:1000A00001070583030800FF09040100020A00009C
:1000B0000007050102080000070581020800000092
:1000C00011241FBECFEFD2E0DEBFCDBF11E0A0E014
:1000D000B1E0E4EEFAE002C005900D92AC30B10759
:1000E000D9F722E0ACE0B1E001C01D92A43EB20716
:1000F000E1F76CD4F5C484CF1F93CF93DF93782FAF
:10010000162FEA01888184FF1BC0898128E8822795
:100110008983FE013296272F392FCF01710FD90124
:100120002F5F3F4F4C914193472F421B1416BCF356
:10013000612F71D11C5F1883DF91CF911F910895BA
:100140008AE58883E6CF4AE151E0D6CF4EE051E020
:10015000D3CFCF93DF9360913301635067FD14C019
:1001600080913701CCE0D0E0C81BD109C85CDE4FDC
:1001700080913101803150F5CE010BD48091330153
:10018000181614F4109233018091010184FFE2C02B
:10019000809100018F3F09F4DDC0C82F893008F03D
:1001A000C8E0982F9C1B909300019091260128E8AD
:1001B0009227909326018111B6C060E087E291E01A
:1001C0002AD184E09FEF90930001C2C08D3209F0E4
:1001D00098C0683099F683EC809326018AE5809375
:1001E000010110924E0188818076882369F0CE014A
:1001F00071D38F3F81F5988197FD8E8190E8909320
:100200004E0180930001BACF2A8110922F0199816B
:1002100091110AC0109230012FE231E082E0309358
:100220000D0120930C0117C0953029F4209335015E
:100230002FE231E0F4CF963009F04AC09B81913033
:1002400091F484E390E090930D0180930C0180E49D
:1002500080934E0182E19F819111D3CF9E819817A7
:1002600080F6892FCECF923031F4CE011ED390E4A8
:1002700090934E01BECF933039F521110BC088E722
:1002800090E090930D0180930C0180E480934E01E7
:1002900084E0E1CF213059F486E590E090930D01A0
:1002A00080930C0180E480934E0182E2D4CF22300F
:1002B00059F486E490E090930D0180930C0180E462
:1002C00080934E0180E1C7CF90E490934E01C3CF5D
:1002D000983081F0993019F420933401A9CF9A30E5
:1002E00069F09B3009F0A4CF9BE490931B0190939D
:1002F0000F019ECF24E331E081E091CF2FE231E086
:10030000FBCF80914E0187FF39CFCE0121D38F3FA4
:1003100021F48EE18093010131CF882309F42ECF9F
:10032000109200012BCF20914E0127FF22C06C2F8D
:1003300087E291E0F2D2C82F893008F03FC06C2FDD
:1003400087E291E068D084E08C0FC83009F03ACFA2
:100350008093010184E199B19C70911107C0815093
:100360008111F9CF1092350110923601DF91CF91B2
:10037000089580910C0190910D014C2F480F26FF9C
:1003800012C0FC0127E231E05491D9015C932F5F48
:100390003F4F31964E13F8CF8C0F911D90930D0166
:1003A00080930C01CCCFE7E2F1E09C01D9012F5FF3
:1003B0003F4F5C9151934213F9CFEECF8FEF809373
:1003C00000018EE1C5CFE9E6F0E0808182608083A4
:1003D000E89AAAE1B1E08BE411968C931197EEE0D4
:1003E000F1E081838AE58C9380830895A82FB92F4B
:1003F00080E090E041E050EA609530E009C02D9146
:1004000082279795879510F084279527305EC8F34B
:100410006F5FA8F30895EADF8D939D930895CF93BE
:10042000CFB7CF93DF93C3954B9BE9F74B9B0BC0A3
:100430004B9B09C04B9B07C04B9B05C04B9B03C00C
:100440004B9B01C08EC06F93C0913701DD27C85C04
:10045000DE4F2F9365E54B9B03C02F916F91E6CF45
:100460000F931F934F9320E040E15F9309B10C700D
:1004700003FB27F93F9350E03BE039C01C70406418
:100480002F77012F5F5F1EC0406819B11C702F7756
:1004900052501FC0406409B12F770C70D1F15F5FDB
:1004A00000C023C0406219B12F771C7091F15F5FCB
:1004B00000C025C00C701027515012F45D5F000081
:1004C000115027952C3F19B1C8F61C700127015017
:1004D00027952C3FC8F64227499309B10C70102785
:1004E0004F73115027952C3FA8F64695469519B1A4
:1004F0001C7079F00127015027952C3F98F66B5A14
:1005000060F3315009B1B0F600C011E01CBB002708
:100510001CC03B503195C31BD04011E01CBB08816F
:10052000033C21F10B3411F1209136011981110F97
:100530001213EDCF4A81441F093669F10D3211F0D3
:10054000013E29F74F7009F0042F009332013F91CB
:100550005F914F911F910F912F916F91CCB3C0FD7F
:1005600062CFDF91CF91CFBFCF911895209132010B
:10057000222369F3109133011123E9F53430EAF1B4
:100580003093330120933101109137013BE0311B4F
:100590003093370132C000913301013064F50AE530
:1005A0004F7049F43091010134FD28C000930101DE
:1005B000C6E2D1E027C0433049F030911A0134FD42
:1005C0001DC000931A01CBE1D1E01CC030910E0197
:1005D00034FD14C000930E01CFE0D1E013C0052715
:1005E00010E000C000000BB91AC0052710E0221F60
:1005F0001DC010E021C04AE502C032ED432FC4E126
:10060000D0E032E01AB11C605B9A0BB11AB95CE021
:1006100020E865E320FF05270BB9279517951C3FB8
:10062000F0F66695B8F7B1F720FF05270BB92795C7
:1006300017951C3FD0F62795179517FF0527000043
:100640001C3F0BB9B0F629913A9519F7037F109129
:100650003501110FC651D0400BB911F0109336017E
:1006600011E01CBB08601AB1137F402F437F54E098
:100670005A95F1F70BB91AB94BB969CFCF92DF92FE
:10068000EF92FF920F931F93CF93DF9300D000D090
:1006900000D0CDB7DEB76B017C014E832D83D7012F
:1006A000C601B695A795979587959C01AD012058F1
:1006B0003B47414E5F4F29833A834B835C83CA019A
:1006C000B901A7019601D0D1BA01A9014150510940
:1006D000610971098091C00082608093C00010920E
:1006E000C1003E81313059F13295307F3E839D818A
:1006F000969528E0929FC00111240550110B000F20
:10070000111F802B3E81832B8093C2004093C40035
:100710005093C50088E18093C10087B98FEF88B9F5
:100720000F900F900F900F900F900F90DF91CF913F
:100730001F910F91FF90EF90DF90CF90089580E38D
:100740008E83D5CFFF920F931F93CF93DF9380912A
:10075000C00085FF08C0E091D8028091D9028E17B1
:1007600011F0359903C02091DA0227C0F0E0E15B77
:10077000FE4F80818093C6008091D8028F5F809366
:10078000D8029091330197FFE2CF9091D902891B53
:1007900081508930E0F210923301D9CF2817B9F097
:1007A0009091C0003091C6009C7191110BC0F0E097
:1007B000E15BFD4F30838093D702E091D70281E067
:1007C0008E0F8F779091C00097FDE8CF01C04498BD
:1007D00080911A0184FF37C0C091D702D091DA020C
:1007E000CD1304C08091DB02882369F1CD1B0C2F4F
:1007F0000F77F02E093010F088E0F82E1F2D1D0F16
:1008000017FF08C01F77412F50E06FE472E08FECB4
:1008100092E04CD18D2F90E06F2D815B9D4F93DC4A
:100820001093DA02011102C080E00BC0449AC8772D
:10083000CC23D1F381E02091D7029091DA022913E1
:10084000F3CF8093DB02DF91CF911F910F91FF9047
:1008500008950F93CF93DF9300D000D0CDB7DEB7CC
:100860008091DC029091DD02A091DE02B091DF0266
:1008700089839A83AB83BC830091E0022091E202DA
:100880004091E102BC01CD01F9DE1092D802109234
:10089000D7021092DA021092D9020F900F900F90A7
:1008A0000F90DF91CF910F910895FC0183818130EA
:1008B00049F484E390E090930D0180930C018091C2
:1008C000340008958CE790E090930D0180930C0123
:1008D00083E40895FC0180818076803211F080E00D
:1008E0000895818190EE980F9230A8F0823261F4E1
:1008F000828180FD439A80FF43988091E3028111B9
:1009000003C082E08093E302808187FDE8CF81E02D
:100910008093DB02E4CF8FEF0895FC01ACEDB2E0F1
:100920008C91808311968C911197818312968C9172
:100930001297828313968C9183838091E202848341
:100940008091E10285838091E002868387E00895AB
:10095000FC0180818093DC0281818093DD028281B1
:100960008093DE0283818093DF0284818093E202A0
:1009700095819093E10226812093E002933010F05C
:100980001092E102813011F41092E20262DF81E004
:1009900008952091D802E091D902611108C0215038
:1009A0002E1B293018F48FEF80933301089531E026
:1009B0003E0F231749F0DC018D91F0E0E15BFE4F23
:1009C00080833093D902CD016150E5CF88E19EE06C
:1009D0000FB6F894A895809360000FBE90936000C6
:1009E00083EF8BB98CE08AB9A8952FEF84E39CE064
:1009F000215080409040E1F700C000001AB880E824
:100A000095E2A0E0B0E08093DC029093DD02A09339
:100A1000DE02B093DF021092E2021092E10288E05F
:100A20008093E00216DFCFDC1092E3021092DB022B
:100A30007894A8958EDB86DE8091E3028823C9F343
:100A400090910E0194FFF5CF823051F468E082E07E
:100A500091E07CDB8091E30281508093E302E9CF57
:100A600062E08AE091E0F5CFA1E21A2EAA1BBB1B3F
:100A7000FD010DC0AA1FBB1FEE1FFF1FA217B3076A
:100A8000E407F50720F0A21BB30BE40BF50B661F80
:100A9000771F881F991F1A9469F760957095809544
:100AA00090959B01AC01BD01CF01089568177907AE
:100AB00068F4FB01DC01E40FF51FA40FB51F02C0B1
:100AC00002900E9241505040D8F7089500C0FB01AB
:100AD000DC0102C001900D9241505040D8F70895BA
:040AE000F894FFCFB8
:0C0AE400FF5AA1200000000002000300E7
:00000001FF
